:100000000C94A7060C94EE060C94EE060C94530880
:100010000C94EE060C94EE060C94EE060C94EE0690
:100020000C94EE060C94EE060C94FC300C94CE313D
:100030000C94702C0C94EE060C94EE060C94EE06C8
:100040000C94EE060C94EE060C94EE060C94EE0660
:100050000C94EE060C94D82C0C94EE060C94EE0640
:100060000C94EE060C94EE060C94EE060C94EE0640
:100070000C94EE060C94EE060C94EE060C94EE0630
:100080000C94EE060C94EE060C94EE060C94EE0620
:100090000C9441070C94EE060C94EE060C94EE06BC
:1000A0000C94EE060C94EE060C94EE060A220A223C
:1000B0003C223C22CE23CE23CE23CE239B223023B0
:1000C00041234123BE23CE23CE23C7234A244A24DF
:1000D0005C245C2453245C245C245C244A244A244D
:1000E00058245C245C2458243B3262325A336232F6
:1000F0005A33AE32D1325A3328333733000000003E
:1001000000003E5B4F5B3E003E6B4F6B3E001C3E73
:100110007C3E1C00183C7E3C18001C577D571C0080
:100120001C5E7F5E1C0000183C180000FFE7C3E760
:10013000FF00001824180000FFE7DBE7FF0030484D
:100140003A060E00262979292600407F050507007A
:10015000407F05253F005A3CE73C5A007F3E1C1C6F
:100160000800081C1C3E7F0014227F2214005F5FE1
:10017000005F5F0006097F017F00006689956A00C5
:1001800060606060600094A2FFA2940008047E0496
:10019000080010207E20100008082A1C0800081CF7
:1001A0002A0808001E10101010000C1E0C1E0C0057
:1001B00030383E383000060E3E0E060000000000CB
:1001C000000000005F000000000700070000147F2F
:1001D000147F1400242A7F2A12002313086462006B
:1001E000364956205000000807030000001C224139
:1001F00000000041221C00002A1C7F1C2A00080865
:100200003E08080000807030000008080808080058
:100210000000606000002010080402003E514945C3
:100220003E0000427F40000072494949460021419A
:10023000494D33001814127F1000274545453900F9
:100240003C4A4949310041211109070036494949D1
:100250003600464949291E000000140000000040F5
:100260003400000000081422410014141414140077
:100270000041221408000201590906003E415D595F
:100280004E007C1211127C007F49494936003E41E4
:10029000414122007F4141413E007F49494941009F
:1002A0007F09090901003E41415173007F08080898
:1002B0007F0000417F4100002040413F01007F0856
:1002C000142241007F40404040007F021C027F001A
:1002D0007F0408107F003E4141413E007F0909092B
:1002E00006003E4151215E007F091929460026493A
:1002F0004949320003017F0103003F4040403F0075
:100300001F2040201F003F4038403F006314081466
:1003100063000304780403006159494D4300007FE2
:1003200041414100020408102000004141417F008A
:10033000040201020400404040404000FCFE0282F2
:100340008282828282C2820202FE0000FEFE02627D
:10035000626262E26262E20202FC0000000000F0FF
:10036000304000000000000000000000000000001D
:10037000000000000000000000000000000000007D
:10038000000080000000000000000040000024A4E5
:10039000A4BCA4242400000024A424243C040400BD
:1003A0000000B8A4A4A4BC00000000FC00FC0044B1
:1003B0004444DC44043C00000000FCFEFE7E7E7EE3
:1003C0007E7E7E3E7EFEFEFE0000FEFEFE9E9E9E29
:1003D0009E1E9E9E1EFEFEFC000000000000000807
:1003E00036410000000077000000004136080000A0
:1003F0000201020402003C2623263C007F7F40418C
:100400004141414141414140407F00007F7F4040A8
:100410004040404140404340407F000000F0FBFB33
:10042000005060FFFC3C1E0E0CFCF8E8E8E83000D1
:1004300000000000020000000000000000000000BA
:1004400002020D02020000000000000000005750F0
:10045000575457105000000097949794F7000000ED
:100460000000E414F494F700000000FF00FF0038DF
:10047000A4A4A53C0000000000007F7F7F7E7E7E5C
:100480007E7E7E7E7E7F7F7F00007F7F7F7F7F7F7F
:100490007F7E7F7F7C7F7F7F000000000000000068
:1004A000000000000000000000000000000000004C
:1004B000000000000000000000000000FEFE0262DC
:1004C0006262E2626262C20202FE0000FEFE02821C
:1004D000C2E2F2828282820202FE000000077FDF17
:1004E0000005037F1F1E3C38181F0F0D0D0D060061
:1004F00000000000002020508C5020200000000050
:100500000000000000000000808040304080890929
:1005100006090900000000001C1212121E10100033
:100520000000000000000000000000FF007384E7EE
:1005300094949467000000000000FEFEFE9E9E9EC4
:100540001E9E9E9E3EFEFEFE0000FEFEFE7E3E1EA7
:100550000E7E7E7E7EFEFEFE00000000000000009B
:10056000000000000000000000000000000000008B
:100570000000000000000000000000003F7F404637
:100580004646474646464340407F00007F7F404105
:1005900043474F4141414140403F000000000007B8
:1005A0000601000000000000000000000000000044
:1005B000000000000000000001000000000000003A
:1005C000040000000000000000000106010000001F
:1005D000000000000000000000000000000000001B
:1005E00008083608080000000000001F000E101C5C
:1005F000121212120000000000003F7F7F7979790B
:10060000787979797C7F7F7F00007F7F7F7E7C781F
:10061000707E7E7E7E7F7F3F000000000000000035
:1006200000000000000000000000000000000000CA
:1006300000000000000000000000000002E364036E
:10064000E30002E26003E20002E26003E200200055
:100650001D0133002F00260236022F020000055D27
:1006600013000E0015000400090000002A00070016
:1006700017000B0008001200000002551C001600B5
:1006800011000C0018002C000155085504550351A9
:1006900004510B5D28000100010001000100010070
:1006A0000100000001000100010001000100010043
:1006B0000000010001000100010001000100000034
:1006C0000100010001000100010001000100010022
:1006D00001000100010001000100010029003302B6
:1006E00030002702370230020000045D0D001000C8
:1006F000050034002B0000003700190006000F0031
:100700001D001400000001001B000A001A002D004B
:100710004C00290001000100010036000C5D0100C1
:1007200001000100010001000100010001000000C2
:1007300001000100010001000100010000000100B2
:1007400001000100010001000100000001000100A2
:100750000100010001000100010001000100010091
:100760000100010001000100065DC55C0100005CA4
:100770000D5D0E5D0000085DC95C40004100420057
:1007800001000000095DCA5C3D003E003F004500DD
:1007900000000A5D43003A003B003C0044000100B9
:1007A000075D0100010001000100010001000100DE
:1007B0000100010001000100010000000100010032
:1007C0000100010001000100000001000100010022
:1007D0000100010001000000010001000100010012
:1007E0000100010001000100010001000100010001
:1007F000010001004900350001004B004E002302BA
:1008000000000100310020022E0038022202000008
:100810000100210252001F021E02310200003900B5
:10082000500051004F002D02240201000100010080
:100830004600010035020100010001000100010035
:1008400001000100010000000100010001000100A1
:100850000100010000000100010001000100010091
:100860000100000001000100010001000100010081
:100870000100010001000100010001000100010070
:100880000100010002544A004D0001000000010077
:1008900025025F00600061002D0000006300380049
:1008A0005C005D005E002E020000530062005900F3
:1008B0005A005B003A0301000100010063003600AA
:1008C0000100010001000100010001000100010020
:1008D0000100000001000100010001000100010011
:1008E0000000010001000100010001000100000002
:1008F00001000100010001000100010001000100F0
:1009000001000100010001000100010000000000E1
:10091000000000002A2B280000000000000000005A
:100920000000000000000029000000002C1E342000
:10093000212224342627252E362D3738271E1F2026
:100940002122232425263333362E37381F0405066B
:100950000708090A0B0C0D0E0F10111213141516AF
:100960001718191A1B1C1D2F3130232D35040506AD
:100970000708090A0B0C0D0E0F101112131415168F
:100980001718191A1B1C1D2F3130354C00000000A0
:100990000000000000000000000000000000000057
:1009A0000000000000000000000000000000000047
:1009B0000000000000000000000000000000000037
:1009C0000000000000000000000000000000000027
:1009D0000000000000000000000000000000000017
:1009E0000000000000000000000000000000000007
:1009F00000000000000000000000000000000000F7
:100A000000000000000000000000000000000000E6
:100A100000000000000000000000000000000000D6
:100A200000000000000000000000000000010101C3
:100A300001010100010101010000000000000000AF
:100A4000000000000000010001000101010101019E
:100A50000101010101010101010101010101010186
:100A6000010101010101010000000101000000007D
:100A70000000000000000000000000000000000076
:100A80000000000000000001010101007F3F1F6421
:100A90003214643214783C1E1E140A0522232526C3
:100AA00028292A2C2D2F3032333536383A3B3D3E1B
:100AB0004042434547494A4C4E5051535557595A65
:100AC0005C5E6062646668696B6D6F71737577797F
:100AD0007B7D7F81838587898A8C8E90929496987E
:100AE0009A9C9E9FA1A3A5A7A8AAACAEAFB1B3B490
:100AF000B6B8B9BBBCBEBFC1C2C3C5C6C7C9CACBE5
:100B0000CCCDCED0D1D2D2D3D4D5D6D7D7D8D9D9AF
:100B1000DADADBDBDBDCDCDCDCDCDDDDDDDDDCDC18
:100B2000DCDCDCDBDBDBDADAD9D9D8D7D7D6D5D435
:100B3000D3D2D2D1D0CECDCCCBCAC9C7C6C5C3C201
:100B4000C1BFBEBCBBB9B8B6B4B3B1AFAEACAAA856
:100B5000A7A5A3A19F9E9C9A98969492908E8C8A0A
:100B600089878583817F7D7B79777573716F6D6BE5
:100B70006968666462605E5C5A5957555351504EBD
:100B80004C4A4947454342403E3D3B3A383635336F
:100B900032302F2D2C2A292826252322FFAA7F55E3
:100BA00040000101010101010101010202020202F2
:100BB0000202020203030303030303030404040405
:100BC00004040405050505050606060606070707CD
:100BD000070708080808090909090A0A0A0B0B0B84
:100BE0000C0C0C0D0D0D0E0E0E0F0F0F1010111121
:100BF00011121213131414151516161717181819A5
:100C0000191A1A1B1B1C1D1D1E1E1F20202122220B
:100C1000232424252626272829292A2B2C2D2D2E4E
:100C20002F30313232333435363738393A3B3C3D68
:100C30003E3F404142434445464748494A4C4D4E59
:100C40004F50515354555658595A5B5D5E5F61621F
:100C500064656668696B6C6D6F7072737577787AAE
:100C60007B7D7E8082838587888A8C8E8F91939509
:100C700096989A9C9EA0A2A3A5A7A9ABADAFB1B32D
:100C8000B5B7BABCBEC0C2C4C6C9CBCDCFD1D4D60D
:100C9000D8DBDDDFE2E4E7E9EBEEF0F3F5F8FAFDAF
:100CA000FF0403300000001603480065006C006973
:100CB000007800200042006500740061000000140C
:100CC00003590075007300680061006B006F0062DB
:100CD000006F000000040309040902220001010062
:100CE000A0C809040000010301010009211101004D
:100CF000012240000705810308000A1201100100CB
:100D0000000008EDFE603001000102030105010949
:100D100006A101050719E029E715002501950875C9
:100D20000181029501750881010507190029FF1548
:100D30000026FF00950675088100050819012905A0
:100D4000950575019102950175039101C00011246B
:100D50001FBECFEFDAE0DEBFCDBF04B603FE27C073
:100D60008091400790914107A0914207B0914307BD
:100D70008730904BA740B04BD1F4109240071092AF
:100D80004107109242071092430714BE84B7877F31
:100D900084BF0FB6F894A895809160008861809315
:100DA0006000109260000FBEE0E0F8E3099512E0E9
:100DB000A0E0B1E0E4E8F8E602C005900D92A830AA
:100DC000B107D9F727E0A8E0B2E001C01D92A03436
:100DD000B207E1F70E94372E0C9440340C940000C7
:100DE00083E390E02091BC0027FD02C00197D1F77A
:100DF00008951092B9008CE08093B8000895CF93C5
:100E0000C82F84EA8093BC000E94F0068091B9004C
:100E1000887F883039F08091B900887F803111F067
:100E200081E012C0C093BB0084E88093BC000E94A4
:100E3000F0068091B900887F883129F08091B9004F
:100E4000887F803469F780E0CF91089584E98093AA
:100E5000BC0083E390E02091BC0024FD02C0019718
:100E6000D1F708958093BB0084E88093BC000E9472
:100E7000F0069091B900987F81E0983209F480E003
:100E800008951F920F920FB60F9211248F939F9384
:100E9000EF93FF938091B900887F803869F038F430
:100EA0008823C9F18036C9F51092080236C0883A05
:100EB00009F1883BF9F031C080910802811111C01D
:100EC0008091BB008093090280910902803120F05B
:100ED0001092090280E001C081E091E09093080245
:100EE0001DC0E0910902F0E08091BB00E151FD4F8F
:100EF000808308C0E0910902F0E0E151FD4F80815C
:100F00008093BB008091090290E001968F70992731
:100F10008093090202C01092BC0081E09091BC0055
:100F20008295880F880F807C9568892B8093BC0000
:100F3000FF91EF919F918F910F900FBE0F901F9097
:100F400018958EE14A9B02C08150E1F74A9BFECF83
:100F500008955A9880E28A95F1F75A9A0895FC010B
:100F60002AE02A95F1F790E020E080E031E02617B2
:100F700079F040E14A95F1F7880F4A9B02C0816001
:100F8000932700C0000040E14A95F1F72F5FEFCFB3
:100F900020E12A95F1F729B100C0000030E13A952F
:100FA000F1F722FB222720F992272081920F9083CC
:100FB0000895EF92FF920F931F93CF93DF931F92A9
:100FC000CDB7DEB719828C017C01E60EF11C0E153F
:100FD0001F0559F00E94A10768E0CE0101960E940A
:100FE000AF07F80181938F01F2CF81E099819111D0
:100FF00080E00F90DF91CF911F910F91FF90EF90C4
:10100000089590930C0280930B0260930A02529A07
:101010005A9A089590930C0280930B0260930A02EF
:1010200052985A9AEA9AE9E6F0E080818F7C8083B0
:101030000895615091E001C0990F6A95EAF720E0A8
:1010400031E0992361F0492F482319F05A9A232758
:1010500001C05A9840E24A95F1F79695F2CF2223C3
:1010600011F05A9A01C05A9880E28A95F1F75A987D
:101070000895FF920F931F93CF93DF93EC018C01A0
:10108000060F111DC017D10741F0F9900E94A90762
:1010900068E08F2D0E941908F5CFDF91CF911F9145
:1010A0000F91FF9008951F920F920FB60F92112487
:1010B0000F931F932F933F934F935F936F937F9360
:1010C0008F939F93AF93BF93EF93FF93CF93DF9350
:1010D0001F92CDB7DEB719820E94A10767E0CE014B
:1010E00001960E94AF07382F369536953695932F87
:1010F00096959570232F2570920F292F2370969522
:1011000096958770920F891348C08981811145C0D7
:1011100080910A02831708F440C080E18A95F1F7B4
:101120005A9A529AA2E0AA95F1F700C000910B02D8
:1011300010910C02B8E03B9F000D111D11245A982C
:10114000F8016581662321F0868197810E94390824
:101150000E94A907F0E1FA95F1F75A9852985A9A25
:1011600080E18A95F1F7D80112966C911297662367
:1011700069F013968D919C9114970E94D907D8011C
:10118000ED91FC91811105C082E004C0D801ED9180
:10119000FC9188E080830E94A1070F90DF91CF919E
:1011A000FF91EF91BF91AF919F918F917F916F913F
:1011B0005F914F913F912F911F910F910F900FBE13
:1011C0000F901F9018950F931F93CF93DF9320914B
:1011D0000A0230E0281739070CF471C09C0193E033
:1011E000220F331F9A95E1F7C0910B02D0910C02A8
:1011F000C20FD31FF894529A5A9845E04A95F1F7D6
:101200000000982F969595708570890F982F937090
:1012100086958695890F8901082B0E94A90784E08D
:101220008A95F1F700C067E0802F0E94190840E11D
:101230004A95F1F752985A9A4A9902C000C0FCCFD9
:1012400087E090E04A9B0EC0019751F4529A5A9A57
:10125000E881F98181E08083789481E090E031C079
:1012600000C0F0CF6D81662381F08E819F810E9446
:10127000D90781110AC0529A5A9AE881F98182E00D
:101280008083789482E090E01CC00E94A10780E2F5
:101290008A95F1F75A98529A40E14A95F1F76A8196
:1012A000662321F08B819C810E9439080E94A90746
:1012B000E881F9811082789480E090E002C084E0B7
:1012C00090E0DF91CF911F910F910895CF93C82F98
:1012D00088E70E94FF0681110AC080E00E94320761
:1012E000811105C08C2F0E943207C1E08111C0E03E
:1012F0000E9426078C2FCF910895CF93C62F0E946E
:101300006609882321F08C2FCF910C94660980E028
:10131000CF910895CF93C62F0E946609882349F084
:1013200080E00E946609882321F08C2FCF910C94D5
:10133000660980E0CF9108958EEA0C9466098FEAE1
:101340000C9466090F931F93CF93DF938C010C5A73
:101350001F4FD801ED91FC91119760832D913C9125
:1013600011972F5F3F4F2D933C93281B390B24354A
:101370003105B9F4EC01BC016B5E7F4F4FE350E0E7
:101380000E94D633CE01CF96F8019183808345E148
:1013900050E060E270E0DF91CF911F910F910C94CB
:1013A000E833DF91CF911F910F9108951F93CF9351
:1013B000DF93FC01EA5AFF4F21E020836A3099F461
:1013C000EC013297808191818C1B9D0B65E170E06F
:1013D0000E94A233182F153158F460E2CE010E940A
:1013E000A2091F5FF8CFDF91CF911F910C94A20942
:1013F000DF91CF911F910895EF92FF920F931F936A
:10140000CF93DF937C01EB01FB0101900020E9F712
:101410008F0101501109C017D10728F46991C70144
:101420000E94D609F8CFDF91CF911F910F91FF90C5
:10143000EF900895CF93DF93EC0144E550E060E234
:1014400070E00E94E833FE01EC5AFF4FD183C08365
:10145000CA5ADF4F81E08883DF91CF9108959F9230
:10146000AF92BF92CF92DF92EF92FF920F931F93B2
:10147000CF93DF93EC010E94A22C90930E028093F5
:101480000D020E949F0963E082E20E948A0988237C
:1014900009F43CC06DE781E20E948A098823B1F11A
:1014A00088E70E94FF06811131C080E40E94320764
:1014B00081112CC06E0184E0982E00E010E0F6014E
:1014C000E00FF11FA08086E0A89E50011124E12CBE
:1014D000F12CF501EE0DFF1DE450FF4F84910E94A9
:1014E00032078FEFE81AF80A86E0E816F10489F768
:1014F0000F5F1F4F0531110511F79A9485E1C80E52
:10150000D11C9110DACFCA5ADF4F1882DF91CF91E8
:101510001F910F91FF90EF90DF90CF90BF90AF9011
:101520009F900C9426078FEF92E00C942F0ACF9394
:10153000DF93C82F0E94F9068EEA0E946609811186
:1015400002C080E09BC060E885ED0E947D09882391
:10155000C1F36FE188EA0E947D09882391F360E07E
:1015600083ED0E947D09882361F380E40E9466096F
:10157000882339F364E18DE80E947D09882309F30B
:1015800060E080E20E947D098823D9F2CC2339F003
:1015900080EA0E9466098823A1F280EC06C081EAF5
:1015A0000E946609882369F288EC0E9466098823F4
:1015B00041F262E08AED0E947D09882311F26FE812
:1015C00081E80E947D09882309F4BBCF61EF89ED92
:1015D0000E947D09882309F4B4CF60E48BED0E945A
:1015E0007D09882309F4ADCF84EA0E946609882327
:1015F00009F4A7CF86EA0E946609882309F4A1CFDF
:101600008EE20E946609882309F49BCF8FEA0E942C
:101610006609882309F495CF60E081E80E947D097E
:10162000882309F48ECF8FEF92E00E941A0A63E0BC
:1016300082E20E948A098823E1F06FE781E20E943A
:101640008A098823B1F088E70E94FF06811111C042
:1016500080E40E94320781110CC0D4E0C0E080E039
:101660000E943207CF5FC038D1F7D150B9F710923E
:1016700055030E9426070E94930A81E0DF91CF91D3
:1016800008950E94091380915503811104C080912F
:101690000001882321F00E94930A1092000180919A
:1016A0000D0290910E020E94AE2C81369A4E10F0DF
:1016B0000C949C09089581E0809300010895CF93D4
:1016C000DF93A7ECB1E04CEC51E061E070E08D916C
:1016D000E82FE295EF70F0E021A18F70EB0102C0DE
:1016E000CC0FDD1F8A95E2F7CE019C2F90959223B7
:1016F00091A392A1892B82A34A175B0741F7DF913F
:10170000CF9108950C94AE118091E20283608860BD
:101710008093E2020E945F0BA0ECB1E041E050E058
:101720008D91E82FE295EF70F0E021A18F70BA0162
:1017300002C0660F771F8A95E2F7CB01962F90952E
:10174000922391A392A1892B82A371E0A73CB707B2
:1017500039F7559A209A5D9A289AE9E1F2E0AFE0CC
:10176000B2E011921D9282E0E332F807D1F70E94B5
:10177000060D809323020C94D7139F92AF92BF92D1
:10178000CF92DF92EF92FF920F931F93CF93DF934D
:1017900080910201811103C0C5E0D0E002C0C0E029
:1017A000D0E0AE01415F5D4F7A0187ECC82E81E049
:1017B000D82E8A01AA24A394B12C25E0922EFCEC09
:1017C000CF16F1E0DF0609F44AC0F60181916F01FE
:1017D000E82FE295EF70F0E021A18F70A50102C023
:1017E000440F551F8A95E2F7CA01922F982B91A3B7
:1017F00092A18095892382A350EA5A95F1F7E0ECF3
:10180000F1E020E040E050E03191A32FA295AF70CD
:10181000B0E090968C9190E03F7002C095958795CE
:101820003A95E2F780FD07C0C501042E01C0880F7C
:101830000A94EAF702C080E090E0282B4F5F5F4FE8
:101840004730510509F7F8018081821719F020838C
:10185000909201010E945F0B0F5F1F4FB0CF8091EC
:1018600001018823B1F0815080930101811103C0EF
:10187000C75EDD4F07C08FE99FE00197F1F700C019
:10188000000007C0F70191917F0199938F5F853028
:10189000C9F781E0DF91CF911F910F91FF90EF90F9
:1018A000DF90CF90BF90AF909F900895CF93DF933C
:1018B00020910201211103C0C0E0D0E002C0C5E0C8
:1018C000D0E00E94300D009721F0029781F4289813
:1018D0000EC0289ADE01A75EBD4F85E0EFE2F2E080
:1018E00001900D928A95E1F780E090E002C081E0DE
:1018F00090E0DF91CF9108950E94BD0B809102018D
:10190000811103C0E5E0F0E002C0E0E0F0E0E75E56
:10191000FD4F20E030E080E0D901A15DBD4F4C914A
:101920009191491381E09C932F5F3F4F2530310502
:1019300099F790912702890F809327020895CF93FA
:10194000DF9380912302882309F43FC00E94BD0BDE
:1019500080910201811103C0C5E0D0E002C0C0E067
:10196000D0E0C75EDD4F45E050E0BE018AE292E084
:101970000E94C93325E0FE01AAE2B2E001900D9277
:101980002A95E1F70E94560C892BD9F05D98809139
:1019900024028F5F80932402863058F180910201E7
:1019A000811103C0E0E0F0E002C0E5E0F0E0E75EB6
:1019B000FD4F80E090E01192019685309105D9F7B6
:1019C00018C05D9A1092240214C00E947C0C809171
:1019D0000201811103C0A0E0B0E002C0A5E0B0E0C8
:1019E000A75EBD4F85E0EAE2F2E001900D928A9594
:1019F000E1F70E94DF1381E0DF91CF910895E82F96
:101A0000F0E0E75EFD4F808108950895E8EDF0E095
:101A10008081806180838AE18A95F1F700C080919E
:101A2000D900817008950E94060D809302010E94E2
:101A3000060D882319F00E94240D02C00E942A0D71
:101A4000789408950C94130D63E070E083E091E0C6
:101A50000C94010863E070E083E091E00C940A08C4
:101A60000F931F93CF93DF938C0190911C01809172
:101A70001B01981761F082E090E00E94E308EC01FE
:101A8000892B39F480911B0180931C0102C0C0E0B6
:101A9000D0E0012B49F48091250290912602892BF8
:101AA00019F480E090E002C081E090E00E94E30839
:101AB000892B49F48091270280931B011092260202
:101AC0001092250206C081E090E090932602809358
:101AD0002502CE01DF91CF911F910F9108950F93B1
:101AE0001F93CF93DF93EC018B010E945B0B882344
:101AF00029F0B801CE010E94260E02C080E090E0DD
:101B00008170DF91CF911F910F91089508950C94EA
:101B100051100F931F93CF93DF93EC01A0E0B0E03F
:101B200090E020E030E0FD01E20FF31FEE0FFF1F19
:101B3000E05BF94F059114910C171D0731F4FB017F
:101B40009083FA01208381E00AC02F5F3F4F273046
:101B5000310549F79F5F17969A3019F780E0DF91BA
:101B6000CF911F910F91089580913A0290913B027D
:101B7000009751F10E948B2180913A0290913B0293
:101B800091FF03C081EE0E948B2180913A029091D7
:101B90003B0290FF03C080EE0E948B2180913A02AD
:101BA00090913B0292FF03C082EE0E948B218091B4
:101BB0003A0290913B0293FF03C083EE0E948B2177
:101BC00010923B0210923A020895CF93DF939091C6
:101BD00037029923C1F1C82F0E94B40D80913902B8
:101BE00096E4C99FF001112497E0899FE00DF11D53
:101BF000112480913802E80FF11DEE0FFF1FE05B0A
:101C0000F94FC591D491D1FF03C081EE0E94C82045
:101C1000D0FF03C080EE0E94C820D2FF03C082EE36
:101C20000E94C820D3FF03C083EE0E94C8208C2FDF
:101C30000E94C820D0933B02C0933A021092370210
:101C400081E080933502DF91CF910895EF92FF926A
:101C50001F93CF93DF93EC017B01FB013081832F36
:101C600090E09093C3068093C206818190E09093A8
:101C7000C7068093C60622812223F9F02091230211
:101C8000853091051CF4211103C017C0211115C026
:101C90002091C506E22FF0E0AF01440F551FE40F7D
:101CA000F51FE85AFC4F308365E070E00E94A233D4
:101CB000818312822F5F2093C50680913C02909110
:101CC0003D02892B39F0CB30FDE5DF0719F081E0CB
:101CD0008093350280913A0290913B02C817D90750
:101CE00031F4F7011281111197C00E94B40DC33372
:101CF000D10509F470C0B8F5C431D105E8F4C1319B
:101D0000D10508F068C0CA30D10548F4C730D10504
:101D100008F061C0C430D10509F044C15CC0CB30CB
:101D2000D10508F43FC1CD30D10508F454C0CE3000
:101D3000D10509F450C036C1CC31D10509F44BC0EE
:101D400030F4CE014597049708F02CC144C0CC3242
:101D5000D10509F440C0CF32D105E9F1CA32D1052D
:101D600009F020C138C0C730FDE5DF0709F4FBC02A
:101D7000F8F4C633E2E0DE0771F170F4C63282E0B7
:101D8000D80749F1CF32E2E0DE0729F1CD31F1E0A9
:101D9000DF0709F007C11FC0C5308DE5D80709F47A
:101DA0009BC008F0CDC0C430DD4509F483C0FAC043
:101DB000CB308DE5D80709F43FC008F43CC1CD30E5
:101DC000EDE5DE0709F4D6C008F4A8C0CE30DD4545
:101DD00009F4DDC0E7C0F70112811123D1F080E0E2
:101DE0000E94E50D48E352E069E372E0CE010E94F3
:101DF000890D182F882309F44DC10E94A22C9093BD
:101E00003F0280933E0281E0809337028093360246
:101E100025C0109236023EC1C333D10501F308F448
:101E2000C3C0C730FDE5DF0709F49DC090F1CB309A
:101E30008DE5D80709F068C0F7011281112381F000
:101E40001092350281E00E94E50D81E00E94852814
:101E50000E94A22C90933D0280933C0210E01AC194
:101E600081E00E94A6288091350281110DC08091E9
:101E70003C0290913D020E94AE2C883C910520F4DA
:101E80008EE496E00E94D41310923D0210923C0220
:101E900001C1C633E2E0DE0709F4A1CF08F4BCC0FB
:101EA000C5308DE5D807C1F008F04AC0C430DD4523
:101EB00009F0F0C0F7011281112361F08091310720
:101EC00082FB112710F982FD02C081E911C088E46C
:101ED00096E013C081E915C0F7011281112381F04A
:101EE0008091310782FB112710F982FD04C080E93F
:101EF0000E94C820CFC082E496E00E94D413AECFE7
:101F000080E90E948B21C6C0CC30EDE5DE0708F4E5
:101F100092C0CD30EDE5DE0769F1A8F5F701128139
:101F2000112361F08091310782FB112710F982FDA6
:101F300002C084E4DDCF8CE396E0DFCF84E4E1CF20
:101F4000F7011281112371F10E94301A0E94B31D12
:101F50008091C806869590E090935703809356032E
:101F60001092340297C0F70112811123D9F00E9418
:101F70002D1D90C0F70112811123A1F0809131072E
:101F80008B7F877F0CC0CE30DD4509F083C0F70121
:101F90001281112339F08091310784608860809329
:101FA000310778C011E076C0C431D105E8F4C13101
:101FB000D10508F014CFCA30D10548F4C730D10597
:101FC00008F00DCFC430D10509F064C008CFCB3084
:101FD000D10508F45FC0CD30D10508F400CFCE3074
:101FE000D10509F4FCCE56C0CC31D10509F4F7CEA9
:101FF00030F4CE014597049708F04CC0F0CECC32B7
:10200000D10509F4ECCECF32D10509F4E8CECA32BD
:10201000D10509F03FC0E3CEC63282E0D80709F40B
:10202000DECECF32E2E0DE0709F4D9CECD31F1E0E9
:10203000DF0781F5D4CEC930FDE5DF0751F4F701A4
:102040001281112309F4AECF81E0809334028AE03B
:102050000CC0CA30DD45A0F4F7011281112309F448
:10206000A1CF81E08093340286E00E94B01D809170
:10207000C806869590E090935703809356030AC054
:10208000F7011281112309F48DCF81E0809334028E
:1020900085E1EBCF812FDF91CF911F91FF90EF90E2
:1020A00008958091C806869590E090935703809399
:1020B00056030E94060D91E089270C94970A2F92EF
:1020C0003F925F926F927F928F929F92AF92BF9258
:1020D000CF92DF92EF92FF920F931F93CF93DF93F4
:1020E000882E962E2091A1013091A2012F3F6FEFF3
:1020F000360731F40E94FD1D81E00E94B01D0BC126
:102100002530310508F097C05091C1065090C506A2
:10211000E901CC0FDD1FCE01820F931FDC01A85A0D
:10212000B94F3D01FE01E552FE4F1F01551509F45F
:10213000F2C0A52FB0E0CD01880F991FFC01EA0F76
:10214000FB1FE85AFC4F61818901061B110917FF2B
:1021500003C0119501951109E101E880F980F301AF
:1021600060E070E0A80FB91FA85ABC4F6D01D2E023
:10217000CD0ED11C6E157F050CF05BC08C915B0100
:10218000A81AB108C501B7FE03C0919581959109C0
:10219000800F911FE601A880B12CA816B9060CF497
:1021A00044C008968A199B0997FF02C080E090E01E
:1021B000880F991F880F991F0097B9F1B080DFEF42
:1021C000BD1679F0882069F0EC01CB0DD11D5E01C0
:1021D000DFEFAD16B10421F01CF0AA24AA94B12CB3
:1021E000A082B180AA24AA94BA1479F0992069F047
:1021F000EC01CB0DD11D5E01DFEFAD16B10421F076
:102200001CF0AA24AA94B12CA182B280AA24AA9478
:10221000BA1459F0442349F08B0D911D8F3F91055D
:1022200019F014F08FEF90E082836F5F7F4F3F963D
:10223000A1CF5F5F7BCF25303105F1F48091C106DE
:102240003091C506282F831791F0E82FF0E0AF01F9
:10225000440F551FE40FF51FE85AFC4F928192314D
:1022600018F49F5F928301C02F5F8F5FECCF2093A4
:10227000C10686E090E057C0C901069785309105F8
:1022800008F03FC09C01220F331FF901E552FE4FB9
:1022900060817181D901A80FB91FA85AB94F40E0D8
:1022A00050E0E901CF52DE4F9C01217033278B01B2
:1022B00001501109461757070CF58881998121159E
:1022C000310521F4F801E41BF50B01C0FA01E80F18
:1022D000F91FCF01880F991FE80FF91FE353F94F3A
:1022E0008C91818311968C911197808312968C9199
:1022F000129782834F5F5F4F1F96DCCF0E946A1A4E
:102300000AC02B30310539F489E6E8E5F6E0DF0153
:102310001D928A95E9F78091A1019091A201019601
:102320008C3091052CF49093A2018093A10104C0FC
:102330001092A2011092A101DF91CF911F910F91F4
:10234000FF90EF90DF90CF90BF90AF909F908F90D5
:102350007F906F905F903F902F9008950E94410B67
:1023600080913702882391F080913E0290913F0244
:102370000E94AE2C8C34910548F080E00E94E50D5F
:1023800080913602811102C00E94B40D8091C80272
:102390009091C902A091CA02B091CB024091C406AB
:1023A00050E060E070E0481759076A077B0701F1C9
:1023B00084309105A105B105A1F030F40297A10583
:1023C000B10591F481E00EC088309105A105B105F9
:1023D00031F04097A105B10539F484E003C083E0F2
:1023E00001C082E00E94E50D8091C8028093C4067E
:1023F00080913402811132C08091C8029091C9024B
:10240000A091CA02B091CB0284309105A105B1051B
:1024100001F148F40097A105B10579F00297A105F3
:10242000B10571F0089588309105A105B10569F0F5
:102430004097A105B10531F008954FE760E707C067
:1024400044E608C040E067E106C040E06FE780E096
:1024500003C04DE360E08FE70C945F1008950F9385
:102460001F93CF93DF93EC018B0144E550E00E9472
:10247000C933892B59F084E5F801DE0101900D92F2
:102480008A95E1F7CA5ADF4F81E08883DF91CF91C7
:102490001F910F910895AF92BF92CF92DF92EF926A
:1024A000FF920F931F93CF93DF93EC010E947E1F47
:1024B00080FD03C0A12CB12C03C014E0A12EB12CCF
:1024C0000E947E1F81FD03C0E12CF12C03C0B4E00B
:1024D000EB2EF12C0E947E1F82FD03C000E010E075
:1024E00002C004E010E08091C8029091C902A0915E
:1024F000CA02B091CB020497A105B10521F4A4E072
:10250000CA2ED12C02C0C12CD12CB50183E0660F9C
:10251000771F8A95E1F76F597E4FCE010E94FC0923
:10252000B60193E0660F771F9A95E1F76C5F7F4FD6
:102530006F597E4FCE010E94FC096DE171E0CE0122
:102540000E94FC09B5016F5F7F4F23E0660F771F84
:102550002A95E1F76F597E4FCE010E94FC09B60122
:102560006F5F7F4F33E0660F771F3A95E1F76B5946
:102570007E4FCE010E94FC096EE271E0CE010E9406
:10258000FC09B7016E5F7F4F43E0660F771F4A95E6
:10259000E1F76F597E4FCE010E94FC09B8016E5FD2
:1025A0007F4F53E0660F771F5A95E1F76B597E4FC7
:1025B000CE010E94FC096FE371E0CE010E94FC098C
:1025C000B7016D5F7F4FE3E0660F771FEA95E1F794
:1025D0006F597E4FCE010E94FC09B8016D5F7F4F9D
:1025E000F3E0660F771FFA95E1F76B597E4FCE0146
:1025F0000E94FC0960E571E0CE01DF91CF911F914F
:102600000F91FF90EF90DF90CF90BF90AF900C9420
:10261000FC09CF93DF93CDB7DEB7C755D1090FB60D
:10262000F894DEBF0FBECDBFCE0101960E941A0AFC
:1026300080912302882321F0CE0101960E944B1243
:10264000BE016F5F7F4F8FEF92E00E942F12C95A39
:10265000DF4F0FB6F894DEBF0FBECDBFDF91CF9135
:10266000089581E008951F93CF93DF9300D000D0A9
:102670001F92CDB7DEB749835A836B8320916202E4
:1026800089819A81211112C0662349F00E947A291A
:10269000182F682F89819A810E94232903C00E94E4
:1026A0004E29182F69817A81812F04C00E947A29CE
:1026B00069817A810F900F900F900F900F90DF91AA
:1026C000CF911F910C94B516FC014081518162811C
:1026D000738184810C9433131F93CF93DF9390E025
:1026E000FC01E45FF64F1491FC01E45FF54FD491D7
:1026F000FC01E457F64FC491DD2319F081EE0E94EE
:10270000C820CC2319F086EE0E94C820812F0E9499
:10271000B721CC2319F086EE0E948B21DD2331F006
:1027200081EEDF91CF911F910C948B21DF91CF919E
:102730001F9108950F931F93CF93DF93EC01062F02
:10274000FE018491882359F19E012F5F3F4F813014
:1027500041F4E901F9011491812F0E94C820812FD1
:102760000DC0823031F4E901F90184910E94C82042
:102770000AC0833031F4E901F90184910E948B2170
:1027800002C00E946C132196802F8823C9F2EFE9C2
:10279000FFE03197F1F700C000008150F6CFDF91E4
:1027A000CF911F910F91089560E00C949A130E94AD
:1027B000342B811102C00E94D42B0C94870D0C94F1
:1027C000820B0C94860D08950E9438240E94E31316
:1027D0002FEF84E39CE0215080409040E1F700C05F
:1027E000000087E797E790930108809300080C9416
:1027F000FE2C0F931F93CF93DF938C010E946413E1
:10280000EC01B8010E946F0D882309F4A4C2B8013D
:10281000CE010E94381F882309F49DC2CB3CFCE501
:10282000DF0741F4F8018281882309F494C20E94F1
:10283000481A91C2CC3C8CE5D80708F0D1C1C33C02
:102840009CE5D90761F4F8018281882309F483C2E9
:102850000E944C2A8272F1F00E94AD1D7CC2C43CE1
:10286000ECE5DE07D0F0F8018281C73CFCE5DF072C
:1028700009F48BC108F09BC1C53CECE5DE0709F407
:102880008AC108F08EC1882309F465C20E944C2ACF
:10289000827211F30E94A01D5EC2C631FCE5DF0703
:1028A00008F03CC1C2308CE5D80708F413C1F80128
:1028B0008281882309F415C10E94342B811102C042
:1028C0000E94D42B0E94472B9093320780933107AC
:1028D000C031FCE5DF0709F4BFC008F03FC0C830D5
:1028E0009CE5D90709F496C0F0F4C430FCE5DF0795
:1028F00009F483C068F4C2309CE5D90709F473C0B9
:10290000C330DC4509F0DDC080913107826072C0C0
:10291000C630FCE5DF0709F46AC008F077C0809193
:102920003107886067C0CC309CE5D90709F481C0C5
:1029300058F4CA30FCE5DF0709F470C008F075C030
:1029400080913107806856C0CE309CE5D90709F4E4
:1029500074C008F07DC08091310789C0CB3FFCE591
:10296000DF0709F44DC008F5C3319CE5D90709F428
:102970007BC068F4C131FCE5DF0709F471C0C231E6
:10298000DC4509F09EC0809131078F7733C0C53197
:102990009CE5D90709F472C008F486C0CA3FDC453B
:1029A00009F08FC0809132073EC0CF3F8CE5D80739
:1029B00009F45FC058F4CD3FECE5DE0709F444C0EC
:1029C00008F43FC08091320782602DC0C1308DE590
:1029D000D80709F473C008F45DC0C230DD4509F0C2
:1029E00070C080E06CC080913107816003C080912D
:1029F000310780618093310764C08091310711C035
:102A0000809132078260809332075BC080913107EA
:102A10008062F0CF809131078064ECCF80913107E4
:102A200088608460E7CF8160EECF809131078E7F30
:102A3000E1CF809131078D7FDDCF80913107877F96
:102A4000D9CF8091320718C0809132078D7FDBCFBC
:102A5000809131078F7ECECF809131078F7DCACF95
:102A6000809131078F7BC6CF80913107877F8B7F25
:102A7000C1CF809132078D7F8E7FC5CF8091310786
:102A800082FB222720F991E0922790FB82F990FBAC
:102A900083F9B0CF80913207982F909591708E7FF7
:102AA000892B90FB81F9AFCF8091310787FB2227DB
:102AB00020F991E0922790FB87F99CCF81E00E945A
:102AC000D62B80913107909132070E94582B0E949B
:102AD000382441C1C1159CE5D90751F0C130DC450E
:102AE00079F0C801DF91CF911F910F910C943113B0
:102AF000F8018281882309F42EC10E94E4132BC1BE
:102B0000F8018281882309F426C18091E202982F7E
:102B1000909590FB80F98093E2021DC1C631FCE5DF
:102B2000DF0739F50E944C2A982FF8018281209105
:102B3000B3013091B401882379F09A7A81E009F4E5
:102B400080E080934002911102C069E201C065E318
:102B5000C9010E940E2C0AC080914002811102C05E
:102B600069E201C065E3C9010E94102C0E94A92AF4
:102B7000F2C0C23CDC4509F0B4CFF8018281882361
:102B800009F4E9C00E94BB1DE6C0882309F4E3C034
:102B90000E949F1BE0C0882309F4DDC00E94831BB4
:102BA000DAC0882309F4D7C00E94901BD4C0C93C66
:102BB0009CE5D90731F4882309F4CDC00E94BD1BE0
:102BC000CAC0CA3CDC4530F4882309F4C4C00E9462
:102BD000AE1BC1C0882309F4BEC00E94CC1BBBC081
:102BE000C33DFCE5DF0749F4F8018281882309F43D
:102BF000B2C088E10E94B01DAEC0C43D8CE5D807CC
:102C000008F069C0F8018281CF3CFCE5DF0771F470
:102C1000882309F4A0C00E94401A863028F00E9440
:102C2000401A883008F436CE86E0E4CFC03D9CE5FB
:102C3000D90700F5CD3CECE5DE0729F4882309F43B
:102C40008AC081E0D7CFCE3CDC4530F4882309F43C
:102C500082C00E94591A7FC0882309F47CC00E9458
:102C6000401A823028F00E94401A853008F412CEB3
:102C700082E0C0CFC13D9CE5D90771F4882309F4F7
:102C80006AC00E94401A8F3028F00E94401A843196
:102C900008F400CE8FE0AECFC23DDC4570F488234F
:102CA00009F459C00E94401A893028F00E94401A45
:102CB0008E3008F4EFCD89E09DCF882309F44BC016
:102CC0000E94401A853128F00E94401A873108F48A
:102CD000E1CD85E18FCFCD3DFCE5DF0741F4F80183
:102CE00082818823C1F182E00E94C32E34C0CE3D90
:102CF0008CE5D807F0F4C53D9CE5D90761F178F47F
:102D0000F8018281882339F10E94401A893128F024
:102D10000E94401A823208F4BDCD89E16BCFCC3DD0
:102D2000DC4509F0DECEF80182818823A1F080E045
:102D3000DBCFCE3D8CE5D80739F4F80182818823BA
:102D400051F00E94D42B07C0CE018A5F9C450997A1
:102D500008F4ADCDC6CE80E0DF91CF911F910F91E9
:102D6000089580E090E00895089526E4829FC001D0
:102D70001124FC0127E0729FE00DF11D1124E60FE4
:102D8000F11DEE0FFF1FE05BF94F859194910895BF
:102D9000880F991FFC01E457F54F85919491089590
:102DA000CF93DF930E94B5160E948A18EC0181151B
:102DB000904508F041C0C11580E4D80708F028C14B
:102DC000C83ED10510F5C03ED10508F09FC1C83AF4
:102DD000D10578F4C53AD10508F0A2C0C130D105BB
:102DE00009F494C108F445C1C430D10508F08EC17E
:102DF00040C1CF3BD10508F49EC0C03CD10508F4CA
:102E000038C1CE01805C9109F5C0C11590E2D907A7
:102E100058F4C11521E0D20708F078C1C03FD105B0
:102E200008F427C1D06572C1C11580E3D80708F046
:102E3000E5C0CE019F70DEC0C11595E5D90708F049
:102E400043C0C11524E5D20708F0F9C0C11582E5D9
:102E5000D80708F5C11591E5D90708F0DCC0CE0107
:102E600074E0969587957A95E1F783709C2F93701F
:102E700021E030E002C0220F331F9A95E2F73C6850
:102E8000382BCF70C695C69580E2C89FE00111240B
:102E9000C22BD32B3BC19E01237033278C2F8695E9
:102EA0008695C115D34508F0BBC0C1E0D0E002C093
:102EB000CC0FDD1F2A95E2F720E2829FC00111248A
:102EC000C82BD92BDC6822C1C11529E5D207A0F493
:102ED000C11588E5D80708F0B7C0C11596E5D90730
:102EE00008F0C7C08C2F0E941E198F71C82FD0E028
:102EF000DC2FCC27D0620AC1C1152AE5D20708F41D
:102F0000A8C0CE0190568115904208F0B2C08D2F16
:102F10008F710E941E19DD27D0628F71D82BF6C0E9
:102F2000C53AD10509F4A8C0C63AD10509F0A7C031
:102F3000C2E8D0E4EBC0C83AD10509F4A3C0C93A4D
:102F4000D10509F4A2C0CA3AD10509F4A1C0CB3A0F
:102F5000D10509F4A0C0CC3AD10509F49FC0CB3B00
:102F6000D10509F49EC0CC3BD10509F49DC0CD3AF2
:102F7000D10509F49CC0C03BD10509F49BC0CE3AF1
:102F8000D10509F49AC0CF3AD10509F499C0C13BE3
:102F9000D10509F498C0C23BD10509F497C0C33BE1
:102FA000D10509F496C0C43BD10509F495C0C53BD1
:102FB000D10509F494C0C63BD10509F493C0C73BC1
:102FC000D10509F492C0C83BD10509F491C0C93BB1
:102FD000D10509F490C0CD3BD10509F48FC0CE3B9B
:102FE000D10509F48EC0CA3BD10509F48DC0C0E0FB
:102FF000D4E48CC00E94C816EC0188C0CE01992789
:10300000D3FF03C0EC01D86C81C0EC01D06C7EC052
:10301000DF70D06A7BC0DC2FCC27C16FD06A76C04E
:10302000C1E0D0E002C0CC0FDD1F2A95E2F720E21C
:10303000829FC0011124C82BD92BDA6867C0DC2F0E
:10304000CC27C46FD06A62C0DC2FCC27C06FD06A97
:103050005DC08C2F8F700E941E1994E0D695C79585
:103060009A95E1F7CF70D0E0DC2FCC27D069C82B40
:103070004DC0C0E0D0E04AC0C1E8D0E447C0C3E8DA
:10308000D0E444C0C2EED4E441C0C9EED4E43EC0B2
:10309000CAEED4E43BC0C5EBD4E438C0C6EBD4E4FC
:1030A00035C0C3EBD4E432C0C4EBD4E42FC0C7EBCB
:1030B000D4E42CC0CCECD4E429C0CDECD4E426C0BC
:1030C000C3E8D5E423C0CAE8D5E420C0C2E9D5E40A
:1030D0001DC0C4E9D5E41AC0C1E2D6E417C0C3E2FA
:1030E000D6E414C0C4E2D6E411C0C5E2D6E40EC0F2
:1030F000C6E2D6E40BC0C7E2D6E408C0CFE6D4E40B
:1031000005C0C0E7D4E402C0CAE2D6E4CE01DF9134
:10311000CF9108958238910569F1B0F4813391051A
:1031200009F46DC048F48932910509F463C08A320C
:10313000910509F469C008958533910509F455C0D6
:1031400089339105B9F00895833E910569F138F40A
:10315000803E9105B1F0823E910509F10895863EC9
:103160009105A9F1873E9105B9F1843E910509F0D9
:1031700064C023C02091310720FD4FC021FD4DC008
:1031800008958091310780FD44C08091320780FF0F
:1031900044C08091310784FD42C083EE4DC08091D0
:1031A000310782FF38C0F5CF8091310782FD33C0EF
:1031B0008091320780FD31C0ECCF8091320781FFD2
:1031C00032C08091310784FD2AC087EE35C08091DE
:1031D000310783FF26C0F5CF8091310783FD21C0E1
:1031E0008091320781FD1FC0ECCF8091310785FDB2
:1031F0001CC01DC08091310785FD19C016C080918B
:10320000310786FD16C017C08091310786FD13C0B7
:1032100010C089E311C082EE0FC080EE0DC080E0C7
:103220000BC086EE09C084EE07C089E205C085E3C5
:1032300003C08AE201C081E390E0089590913107D4
:1032400092FF0DC0282F2871283019F4877F8460E1
:1032500006C0282F2471243011F48B7F886093FFDF
:103260000DC0282F2871283119F4877E846106C08B
:10327000282F2471243111F48B7E8861209132072C
:1032800020FF0DC0382F3871383019F4877F8160E6
:1032900006C0382F3171313011F48E7F886021FFE4
:1032A0000DC0282F2871283119F4877E816106C04E
:1032B000282F2171213111F48E7E886194FD877E43
:1032C0000895EF92FF920F931F93CF93DF93F62E03
:1032D000472FE82FF0E0711106C0EF55F44F6491CD
:1032E000762F862F72C0272F30E0EF55F44FE491F0
:1032F0000E2F10E056E0659FC0011124CFEFD0E003
:10330000BE010E948E335BEA5603C001579F900DA9
:1033100011248F0D911D8F0D911D982F990F890FDD
:103320007E01E21AF30AE09ED001E19EB00DF09E0C
:10333000B00D1124489FA0011124452F55277E016F
:10334000E41AF50AE09EA001E19E500DF09E500D9A
:1033500011247E01E81AF108E29EC001E39E900D5F
:10336000F29E900D1124892F9927C81BD90BC09F5D
:10337000C001C19F900DD09F900D11246230710546
:1033800091F048F461157105E1F061307105A9F41F
:103390008B2F752F19C06430710561F038F06630DD
:1033A000710579F00AC0892F7B2F0EC08E2F7B2FDD
:1033B000E52F0AC08E2F792F02C0852F7E2FEB2F8D
:1033C00003C08B2F7E2FE92F6E2FDF91CF911F919E
:1033D0000F91FF90EF9008950895CF93DF93762F8C
:1033E000E901682F842F0E946119798368838A8399
:1033F000DF91CF910895493708F048E70C94ED1913
:103400008091C806282F269530E02115310519F442
:103410008170826005C02332310524F0817084649C
:103420008093C8068091CB06893718F088E780938F
:10343000CB06089588E090E00C940034CF92DF92A0
:10344000EF92FF926B017C010E94001AB701A60166
:1034500088E090E0FF90EF90DF90CF900C941E34C6
:10346000E8ECF6E083E0808311828FEF828388E7C7
:103470008383148260817181828193810C941E1AEE
:103480008091C80680FF02C08695089580E0089567
:103490008091CC06833018F48F5F8093CC066091C6
:1034A000C8067091C9068091CA069091CB060C940B
:1034B0001E1A8091CC06882319F081508093CC0687
:1034C0006091C8067091C9068091CA069091CB069A
:1034D0000C941E1A6091A70170E08091C80680FFCD
:1034E0000AC08091440223E0829FC00111248353CB
:1034F000994F0C94C11E809143029091A6018917A7
:1035000080F7E82FF0E09F01220F331FE20FF31F37
:10351000E353F94F1182108212828F5FF0CF9091A6
:10352000C80690FF16C0909143022091A601921701
:1035300070F4E92FF0E0DF01AA0FBB1FEA0FFB1FB9
:10354000E353F94F8183608342839F5FF0CF0C94F4
:103550006A1A0895CF93DF9300D01F92CDB7DEB7DC
:103560009091C80690FF0AC09E012F5F3F4F0E94B6
:10357000FB194B8169818A810E948F1A0F900F90ED
:103580000F90DF91CF910895CF93DF93EC01EC8101
:10359000F0E0E456F54F4491E8ECF6E06281818179
:1035A0000E94AA1A8C818F5F8C83DF91CF9108953E
:1035B000CF93DF93EC01E8ECF6E0438162818C81EC
:1035C0000E94AA1A8C818F5F8C83DF91CF9108951E
:1035D000AF92BF92CF92DF92EF92FF920F931F9321
:1035E000CF93DF9300D01F92CDB7DEB7182FF62E02
:1035F000042FE22E9091C80690FF6DC0E92FE6954A
:10360000AE2FB0E0AB51BE4F8C9180934C029E7FA9
:10361000923061F49E012F5F3F4F812F0E94FB1972
:103620004B8169818A810E948F1A43C0823019F4CC
:103630000091CB063EC0863019F41091C90639C0FE
:103640008930D9F38931A9F5E9518E2F8170D82EAF
:10365000E695F0E0E456F44FA590B490C12CBB245D
:103660006091A501C61618F52C2D30E0A29EC00170
:10367000A39E900DB29E900D112470E00E948E3397
:10368000812FD11002C0860F01C0861B909143028A
:10369000290F311DA901440F551F240F351F235336
:1036A000394F402F6F2D0E94FB19C394D9CF0E9430
:1036B0006A1A1093C906F092CA060093CB06EE2050
:1036C00051F06091C8067091C9068091CA06909128
:1036D000CB060E941E1A0F900F900F90DF91CF9192
:1036E0001F910F91FF90EF90DF90CF90BF90AF9020
:1036F0000895E8ECF6E09181282F438162818AE009
:10370000890F0C94E81A81E00C94791BE8ECF6E040
:103710009181282F4381628186EF890F0C94E81AEA
:1037200081E00C94861BE8ECF6E0628121E1620FF7
:1037300008F46FEF282F438181810C94E81A81E00F
:103740000C94931BE8ECF6E0628121E1621B08F423
:1037500060E0282F438181810C94E81A81E00C9469
:10376000A21BE8ECF6E0438121E1420F08F44FEFA1
:10377000282F628181810C94E81A81E00C94B11B9E
:10378000E8ECF6E0438121E1421B08F440E0282FF9
:10379000628181810C94E81A81E00C94C01B20E0C6
:1037A0000C94E81AFF920F931F93CF93DF93EC01D1
:1037B000F12C0FEF10E06091A501F616F0F4809166
:1037C00043022F2D30E0280F311DC901880F991FAA
:1037D000280F391F2353394F70E0C8010E94A233CC
:1037E000962F8C814091CB066091CA06F99E800D80
:1037F00011240E94FB19F394DECF0E946A1A9A8169
:103800008C8190FF02C08F5F01C081508C83DF915B
:10381000CF911F910F91FF900895BF92CF92DF92A9
:10382000EF92FF920F931F93CF93DF93FC0182815E
:1038300080FF02C00FEF01C001E010E08091A50100
:10384000181708F040C080914302C12ED12CE60128
:10385000C80FD11DCE01880F991FC80FD91FC353A0
:10386000D94F198218821A8234E0E32EF12CB12C40
:10387000809142028B0D813214F08F7105C087FF59
:1038800003C09091A501890F082E000C990BC81652
:10389000D90691F48091CB068E9DA0018F9D500D8D
:1038A000112455954795559547959E016091CA06F7
:1038B0008091C9060E94FB19B00EF1E0EF1AF108E1
:1038C000B9F61F5FBBCF0E946A1A80914202013095
:1038D00031F4811102C08091A501815007C090E0B0
:1038E00001966091A50170E00E94A233809342028C
:1038F000DF91CF911F910F91FF90EF90DF90CF90CC
:10390000BF900895CF93809143029091A6018917AB
:1039100070F4E82FF0E09F01220F331FE20FF31F36
:10392000E353F94F1182108212828F5FF0CFC0E013
:103930006091A501C617C0F5EC2FF0E070E0CF0153
:103940000E94A23320914302820F20914102022E55
:10395000000C330B90E0E217F307CCF02091A401A8
:10396000022E000C330B2E173F078CF09C01220F08
:10397000331F820F931F9C012353394F4091CB0675
:103980006091CA068091C9060E94FB190BC0FC0118
:10399000EE0FFF1F8E0F9F1FFC01E353F94F1182A3
:1039A00010821282CF5FC4CF0E946A1A2091A301B5
:1039B00080914102820F809341029091A401920F65
:1039C0009093A40119165CF4082E000C990B4091F9
:1039D000A50150E041505109841795071CF021952D
:1039E0002093A301CF9108950F931F93CF93DF935B
:1039F0008C01FC01848195810196817099279583C2
:103A00008483C0E0D5E58091A501C81700F58091B9
:103A100043022C2F30E0280F311DC901880F991F58
:103A2000280F391F2353394F4C2F4695F8018481B5
:103A30009581840F911D81704091CB066091CA06DB
:103A40008D9F802D11240E94FB19CF5FDCCFDF9169
:103A5000CF911F910F910C946A1AE8ECF6E08081E7
:103A60008E7F808360817181828193810E941E1A82
:103A700010924D022FEF80E792E02150804090405D
:103A8000E1F700C000000C946A1A6091C8066695C0
:103A900070E04BE050E088EA91E00E94BC33892B53
:103AA00019F481E080934D020E94A22C909346026B
:103AB0008093450208959091C80690FF35C091709B
:103AC000811102C0926006C0833210F0946402C07B
:103AD000880F982B9093C806662351F06091C80612
:103AE0007091C9068091CA069091CB060E941E1A59
:103AF0006091C806669570E04BE050E088EA91E07E
:103B00000E94BC33892B19F010924D0202C00E9412
:103B1000451D81E0809348024091CB066091CA0622
:103B20008091C9060C94CF1B0895682F9091C80608
:103B3000969581E0890F833208F081E00C945B1D3B
:103B400081E00C94951D682F9091C80696958FEF93
:103B5000890F09F482E20C945B1D81E00C94A31D93
:103B600061E00C945B1DE8ECF6E08081816080836D
:103B700086950C94B01D8091C80680FD0C942D1D77
:103B80000C94B31D60E00C945B1D80914B0281117D
:103B900033C08091E20281608093E2020E94342B64
:103BA000811104C00E94D42B0E94301A0E941A1A5C
:103BB0006093C8067093C9068093CA069093CB069B
:103BC0006E7F61F40E94301A0E941A1A6093C80630
:103BD0007093C9068093CA069093CB060E94001A80
:103BE00010924D028091C80680FF03C086950E9406
:103BF000C21D81E080934B020895E8ECF6E08081DD
:103C00008160808386950C94C21D0F931F93CF9380
:103C1000DF9380914D02882309F47CC080914C028F
:103C2000E091C806E695E81BE0934702823049F42C
:103C3000F0E0E856F54FE491CE2FD0E004EC1AE125
:103C400039C0863049F4F0E0EB56F54FE491CE2FC1
:103C5000D0E008ED1AE12EC0893051F4E695F0E08D
:103C6000EE56F54FE491CE2FD0E002ED1BE122C0DD
:103C70008F3051F4E695F0E0E157F54FE491CE2F07
:103C8000D0E00DE01CE116C0853149F4F0E0E457C6
:103C9000F54FE491CE2FD0E002E81CE10BC0883153
:103CA00029F4C8EED3E004EF1CE104C0C0EDD7E076
:103CB0000CEE19E180914802882389F010924802A5
:103CC0000E94A22C9E0120953095820F931F909305
:103CD00046028093450210924A0210924902809156
:103CE0004502909146020E94AE2C8C179D0790F0E1
:103CF000E0914502F0914602CE0FDF1FD0934602BD
:103D0000C093450285E492E0F801DF91CF911F91C5
:103D10000F910994DF91CF911F910F9108952BB1CD
:103D2000342F309523233BB1432B3FB7F894FC014C
:103D3000680F791FE617F70789F0819198E04BB972
:103D4000000000C087FF2BB9880F000000C000C032
:103D500000C02BB900C09A9591F7ECCF3FBF0895F2
:103D60002AB1242B2AB99B01220F331F620F731F24
:103D70000E948F1E87EC90E00197F1F700C00000D1
:103D8000089548E00C94B01E0F931F93CF93DF93D8
:103D9000C62FD42F122FFC0182818823C9F0609393
:103DA00050020E94A22C90934F0280934E0280E218
:103DB0008C0F883008F057C0C77081E001C0880FB1
:103DC000CA95EAF7DF91CF911F910F910C94CA2108
:103DD00080915002681330C080914E0290914F0242
:103DE0000E94AE2C883C910538F500E20D0FCD17EE
:103DF000B9F080E28C0F883040F4C77081E001C0D8
:103E0000880FCA95EAF70E94D121083028F581E091
:103E10009D2F977001C0880F9A95EAF70E94CA21DA
:103E2000812F0E94B7210830F0F4D77081E001C0E3
:103E3000880FDA95EAF70AC080E28C0F883098F490
:103E4000C77081E001C0880FCA95EAF7DF91CF9172
:103E50001F910F910C94D121812FDF91CF911F9150
:103E60000F910C94B721DF91CF911F910F9108957D
:103E70009C01CB01233F4CE53407F9F078F4283D51
:103E8000FCE53F07B9F0293D4CE5340711F1273D2A
:103E90003C4531F526E241EE61EE1EC0253FFCE5D2
:103EA0003F0799F070F0263F3C45D1F427E245EEFC
:103EB00066EE12C027E245EE0EC026E241EE60EE4D
:103EC0000BC027E245EE64EE07C026E241EE62EE4B
:103ED00003C028E241E065EE0E94C41E80E0089520
:103EE000FC018281882319F010925002089581E02C
:103EF000089590935602809355020895E0915502DB
:103F0000F0915602309721F00190F081E02D099454
:103F100080E00895E0915502F0915602309721F02B
:103F20000280F381E02D099408952091530230918D
:103F300054022817390771F090935402809353026A
:103F4000E0915502F0915602309721F00680F781FA
:103F5000E02D0994089520915102309152022817C2
:103F6000390771F09093520280935102E09155020B
:103F7000F0915602309721F00084F185E02D0994EC
:103F8000089585B7806885BF85B7806885BF089527
:103F900008950C94C81F0C94C91F0C94C81F0E944C
:103FA000C11F0E94220D0C94CB1F81E008950E9436
:103FB000992C0E94840B0E940F2D0E94C51D0C9409
:103FC000CD1FBF92CF92DF92EF92FF920F931F937C
:103FD000CF93DF93CDB7DEB72A970FB6F894DEBF45
:103FE0000FBECDBF0E949F0C0E94D51F811111C032
:103FF0008FEF89838A831B820E94A22C8160782F95
:104000009D838C8349815A816B818D810E94882098
:1040100054C088E5C82E82E0D82E00E010E0B02E13
:10402000802F0E94FF0CE82EF60121916F01F82EDF
:10403000F22631F40F5F1F4F0A30110581F7D8CFF8
:104040008091E20281FD0E94050D80E090E02F2D1D
:1040500030E0482FB901082E02C0759567950A9483
:10406000E2F760FF25C08E83BF8281E090E06C01A3
:1040700002C0CC0CDD1C4A95E2F72E2D30E02C213D
:104080003D21232B09F480E088870E94A22C8160C7
:10409000782F9A8789874E815F8168858A850E94FB
:1040A0008820F801E85AFD4F80818C25808305C067
:1040B00001968730910569F6BDCF0E947E1F9091D1
:1040C00057028917A9F00E947E1F809357022A96F3
:1040D0000FB6F894DEBF0FBECDBFDF91CF911F9119
:1040E0000F91FF90EF90DF90CF90BF900C94E11371
:1040F0002A960FB6F894DEBF0FBECDBFDF91CF91E9
:104100001F910F91FF90EF90DF90CF90BF90089597
:10411000CF93DF93CDB7DEB72B970FB6F894DEBF02
:104120000FBECDBF4F83588769877A878B87DE01A3
:10413000119686E0FD0111928A95E9F785E0FE016E
:10414000379601900D928A95E1F70E941A2A8823EA
:1041500019F082E00E941B2B0E94ED2981110E9420
:104160009B2A49815A816B817C818D819E810E942D
:10417000E8262B960FB6F894DEBF0FBECDBFDF91B9
:10418000CF910895FC01808191810E94BC290895FE
:10419000882309F4BFC0682F8CEF860F813A38F46A
:1041A0008091B3019091B4010E940E2C0CC080E26A
:1041B000860F883050F4677081E001C0880F6A95DF
:1041C000EAF70E944F2A0C94A92A8BE5860F8330C8
:1041D00070F4653A29F0663A31F083E890E005C062
:1041E00081E890E002C082E890E00C94951F88E599
:1041F000860F873108F08EC0683A09F445C0693AE5
:1042000009F445C06A3A09F445C06B3A09F445C05F
:104210006C3A09F445C06B3B09F445C06C3B09F4AA
:1042200045C06D3A09F445C0603B09F445C06E3A9B
:1042300009F445C06F3A09F445C0613B09F445C033
:10424000623B09F445C0633B09F445C0643B09F493
:1042500045C0653B09F445C0663B09F445C0673B72
:1042600009F445C0683B09F445C0693B09F445C001
:104270006D3B09F445C06E3B09F445C06A3B09F447
:1042800045C080E090E044C082EE90E041C089EEFD
:1042900090E03EC08AEE90E03BC085EB90E038C0F5
:1042A00086EB90E035C083EB90E032C084EB90E089
:1042B0002FC087EB90E02CC08CEC90E029C08DECF7
:1042C00090E026C083E891E023C08AE891E020C016
:1042D00082E991E01DC084E991E01AC081E292E098
:1042E00017C083E292E014C084E292E011C085E23C
:1042F00092E00EC086E292E00BC087E292E008C036
:104300008FE690E005C080E790E002C08AE292E08C
:104310000C94AB1F0895882349F1682F8CEF860F0A
:10432000813A38F48091B3019091B4010E94102C2D
:104330000CC080E2860F883050F4677081E001C0C5
:10434000880F6A95EAF70E94552A0C94A92A8BE5F2
:10435000860F833020F480E090E00C94951F685A1B
:10436000673120F480E090E00C94AB1F0895CF9368
:10437000C82F0E94C820C93349F42FEF87EE93E07D
:10438000215080409040E1F700C000008C2FCF9179
:104390000C948B21882321F00E944F2A0C94A92A87
:1043A0000895882321F00E94552A0C94A92A089583
:1043B000CF92DF92EF92FF920F931F93CF93DF93F1
:1043C0007C01162FC72FFC01D581D295DF700281A9
:1043D00001110E946C2A0E94452A882379F000234B
:1043E00069F080E2810F883048F082E00E941B2B48
:1043F0000E94452A91E0D82ED92601C0D12CCC2E7E
:10440000C2948FE0C8228C2D90E0FC01EA5AFF4F45
:104410000C94B6338C2F807FCF70882311F0C29517
:10442000C07F002399F0CC2309F492C180E2810F70
:10443000883010F0111104C08C2F0E944F2A03C045
:104440008C2F0E945F2A0E94A92A82C1812F0E947C
:104450008B21CC2309F4A2C180E2810F883010F0B7
:10446000111104C08C2F0E94552A03C08C2F0E946A
:10447000652A0E94A92A92C18C2F807FCF7080323A
:1044800011F0C295C07F112319F0113059F134C0D9
:104490000023B1F0DD2381F0D13031F40E947F2A76
:1044A0008C2B0E94872A7AC1D53031F40E949B2A36
:1044B0008C2F0E94E72A2AC00E947F2A8C2B27C0BB
:1044C000DD2369F0D13041F40E944C2A8C2309F499
:1044D00065C10E94F02A03C0D53009F45FC10E9473
:1044E0009B2A25C0002321F0D63008F057C10EC00A
:1044F000D53008F053C11BC0002361F0DD2331F03B
:10450000F701858180FF24C18F7085838C2F0E94E5
:10451000CA2144C1DD2359F0193309F02BC1FFEF43
:1045200027EE83E0F15020408040E1F721C18C2F3D
:104530000E94D12133C18C2F837009F045C0011135
:1045400031C1412F429546954770440F440F612F6A
:104550006F70862F90E0A0E0B0E0042E04C0880FBA
:10456000991FAA1FBB1F0A94D2F714FF10C00FE0B7
:1045700010E020E030E004C0000F111F221F331FA5
:104580004A95D2F7009510952095309503C000E02C
:1045900010E09801C695C695C370BC01CD01602B93
:1045A000712B822B932BC23049F058F4C13019F093
:1045B0000E943928F7C00E942728F4C00E944B2887
:1045C000F1C00E942528EEC0002319F08C2F8170C5
:1045D00001C08695882309F4E5C0412F4295469590
:1045E0004770440F440F612F6F70862F90E0A0E05A
:1045F000B0E0042E04C0880F991FAA1FBB1F0A94A5
:10460000D2F714FF10C00FE010E020E030E004C04B
:10461000000F111F221F331F4A95D2F700951095E6
:104620002095309503C000E010E09801C695C6952E
:10463000C370BC01CD01602B712B822B932BC23038
:1046400049F058F4C13019F00E94FE28ABC00E9416
:10465000EC28A8C00E941029A5C00E945F28A2C013
:10466000CF70002339F08C2F0E948528812F0E9463
:10467000CA2198C0812F0E94D1218C2F0E94A62888
:1046800091C0123F01F128F4103F41F0113FA1F019
:104690005AC0133FF9F0143F39F155C0002341F0DF
:1046A000D53008F07BC08C2F8F710E94CB2876C04C
:1046B000D63008F073C0F7CF002339F08C2F8F71FC
:1046C0000E9485286BC00023C9F38C2F8F710E9434
:1046D000A62864C0002329F08C2F8F710E947028B7
:1046E0005DC00E946B285AC00023C9F00E94EA29CD
:1046F0000E94552A0E94162A843039F40E94122BF7
:104700008C2F8F710E94A6286CC0D53008F069C02C
:10471000CF718C2F0E94852863E08C2F0DC00E94E2
:10472000EA290E944F2AD53050F00E94122B0E9495
:10473000F02A64E08C2F8F710E94FC2A52C081E025
:104740000E941B2B4EC0002339F0DD2309F4B6CFA5
:10475000812F0E94C82022C0DD2309F4B6CF19336F
:1047600049F49FEFE7EEF3E09150E040F040E1F7CD
:1047700000C00000812F0E948B2110C04C2F4F7071
:10478000612FC7010E94B1160E9496270FC04C2FBF
:104790004F70612FC7010E94B41608C088EF8C0DBE
:1047A000843020F40E947E1F0E94E113DD20D9F0A6
:1047B0000E94162A80FD17C0F70112820E94102A5B
:1047C0000E948528C7010E94FC230E94102ADF91C5
:1047D000CF911F910F91FF90EF90DF90CF900C94AD
:1047E000A628D12CDFCFDF91CF911F910F91FF90A1
:1047F000EF90DF90CF9008950F931F93CF93DF93A7
:10480000EC01988189812B813C81232B31F08F3FF2
:1048100031F481E09F3F19F403C081E001C080E0E2
:1048200080FD13C0CE010E94F913882371F06881C6
:1048300079818A810E94C7298C010E9422290E94C5
:104840001328B801CE010E94D821DF91CF911F918A
:104850000F9108950E946C2A0E947C2A0C94A92A28
:104860008091B3019091B4010E94122C0C942A24DF
:104870000E945C2A0C943024E92FE295EF704E2FB1
:1048800050E0FA013297EE30F105B0F4EA59FF4FEB
:104890000C94B633803F91F018F4883E68F40EC053
:1048A000843F51F40BC0883E48F0813F29F406C094
:1048B00093FB882780F9089580E0089581E00895AA
:1048C0000E94BC290E943C240895CF93DF9300D01E
:1048D00000D01F92CDB7DEB70F900F900F900F90C2
:1048E0000F90DF91CF910895CF93DF9300D000D048
:1048F00000D0CDB7DEB726960FB6F894DEBF0FBE58
:10490000CDBFDF91CF9108951F93CF93DF93C091D7
:10491000630216E080916402C81799F0D0E01C9FF2
:10492000F0011D9FF00D1124EB59FD4F4081518185
:1049300062817381848195810E9474242196C7705D
:10494000E9CFDF91CF911F91089540919502509149
:1049500096026091970270919802809199029091CD
:104960009A020C947424CF9380919A0282958F704E
:1049700009F05FC080919702882309F45AC08091A2
:104980006302B091640270919502A09196024091E9
:1049900098025091990291E07F3F09F090E0692FD1
:1049A000C6E08B1709F445C04115510521F0AF3F12
:1049B00021F020E003C021E001C0262F90E020FD7F
:1049C00035C0C89FF001C99FF00D1124EB59FD4F70
:1049D00021812A132BC02081271328C02281211175
:1049E00025C0238134812417350710F42150310963
:1049F000241B350B283C3105C8F420919A022F70F6
:104A0000206120939A0226E0289FF001299FF00D53
:104A10001124E659FD4F80818F708061808385E984
:104A200092E00E94FC23CF910C948424019687701D
:104A3000B8CFCF910895AF92BF92CF92DF92EF920D
:104A4000FF920F931F93CF93DF93CDB7DEB761979C
:104A50000FB6F894DEBF0FBECDBF7C0185E0F70135
:104A6000DE011D9601900D928A95E1F7D7014C91D8
:104A700011965C91119712960C913091950260916C
:104A800096028091980290919902009731F06F3FC1
:104A900031F421E03F3F19F403C021E001C020E0E0
:104AA000B22FB170BB2E20FD40C1F701C380D4806E
:104AB000A0909702AA2009F4F6C020919A02C81685
:104AC000D90628F0D601A81BB90BCD0104C08095EA
:104AD00090958C0D9D1D11E0883C910580F010E0B3
:104AE000207F09F0A6C07C2DD98AC88A602F8989C9
:104AF0000E94652485E992E00E94FC230EC1822F6A
:104B0000807F09F053C0561314C0431312C0102FF6
:104B100001110FC02F70206120939A020E94A524DA
:104B200085E992E00E94FC2380919A02F701858337
:104B30003DC1CD2831F05F3F31F481E04F3F19F4A2
:104B400003C081E001C080E080FD03C081E08027D8
:104B500002C080E090E0182F117080FF1CC080918F
:104B600063022091640236E0821709F4FCC090E0F1
:104B7000389FF001399FF00D1124EB59FD4F6181F1
:104B8000561306C06081461303C06281061303C03A
:104B900001968770E9CF102F002309F407C1809197
:104BA0009A02816080939A0210E000C1561314C0EB
:104BB000431312C0011110C080919A02F70185833E
:104BC000C7010E94FC2386E0F701A5E9B2E001904D
:104BD0000D928A95E1F7C4C04D875E878D859E85CD
:104BE0000E946024882379F1002369F120919A02C0
:104BF000822F82958F7090E0029774F080919502D9
:104C00009091960298878F831986DB86CA862C87B7
:104C1000CE0107960E94FC2386E0F701A5E9B2E0E9
:104C200001900D928A95E1F70E94B3240E94A52479
:104C30000DC0561769F04D875E878D859E850E9451
:104C40006024811119C0C7010E94FC2311E0AEC08D
:104C50004313F1CF0111EFCF80919A02F7018583C1
:104C6000C7010E94FC2386E0E5E9F2E0DF011D9226
:104C70008A95E9F71A2D9AC0002329F320919A0208
:104C8000822F82958F7090E0029734F28091950286
:104C9000909196029A8389831B82DD82CC822E8337
:104CA000CE010196B7CFC816D90628F0F601E81B49
:104CB000F90BCF0104C0809590958C0D9D1D883C0B
:104CC000910548F010E07C2DD98AC88A602F898927
:104CD0000E94652422C0102F002309F4B4CF56137C
:104CE0000BC0431309C086E0F701A5E9B2E00190CB
:104CF0000D928A95E1F75AC04D875E878D859E8516
:104D00000E946024811188CF80919A0281608093F3
:104D10009A02C7010E94FC2349C0E5E9F2E086E05F
:104D2000DF011D928A95E9F71BC0002309F48BCFA0
:104D30004D875E878D859E850E946024182F88236D
:104D400009F481CF86E0F701A5E9B2E001900D9268
:104D50008A95E1F785E992E00E94C2200E94B3247F
:104D60000E94A52423C04D875E878D859E850E9465
:104D7000BC29292F22952F70223028F49F7039F0FA
:104D8000811105C00BC0243028F49F7049F4805E67
:104D9000883020F0C7010E94FC23B12E1B2D06C0D5
:104DA000D70115969C91907F91F7F8CF812F61964E
:104DB0000FB6F894DEBF0FBECDBFDF91CF911F912C
:104DC0000F91FF90EF90DF90CF90BF90AF9008953C
:104DD0001F93CF93DF93CDB7DEB72C970FB6F89420
:104DE000DEBF0FBECDBF4F83588769877A878B8719
:104DF0009C87CE0107960E941B258823D1F09F81B6
:104E000088852A853B85232B31F08F3F31F481E063
:104E10009F3F19F403C081E001C080E080FD47C0DE
:104E20004F81588569857A858B859C850E9474247D
:104E30003EC086E0FE013796DE01119601900D928C
:104E40008A95E1F7FF81E8856A857B8561157105A3
:104E500031F0EF3F31F481E0FF3F19F403C081E00E
:104E600001C080E080FD23C02091640230E0C901D0
:104E70000196877099274091630250E08417950747
:104E8000F1F1F983EA837D836C8396E0929FD001F0
:104E9000939FB00D1124AB59BD4FFE013196019087
:104EA0000D929A95E1F7809364020E94842416E0A3
:104EB0008091630290916402891771F1189FC0017B
:104EC00011248B599D4F0E941B25882329F1E091C5
:104ED00063021E9FF0011124EB59FD4F4081518167
:104EE00062817381848195810E9474248091630220
:104EF00090E001968770992780936302D9CF0E9432
:104F000038241092640210926302E5E9F2E086E030
:104F1000DF011D928A95E9F72C960FB6F894DEBF53
:104F20000FBECDBFDF91CF911F910895EF92FF92F9
:104F30000F931F93CF93DF938C01892B09F46CC0DF
:104F4000F12CEE24E394E8012196F8018491843752
:104F500040F4843008F051C0813081F0823019F182
:104F60005BC0853709F444C0A8F19CE7980F9037DF
:104F700008F052C08F770E948B2141C00E5F1F4FF7
:104F8000FE01849190E2980F983050F48770FE2DC6
:104F900001C0FF0F8A95EAF78F2F0E946F2A14C075
:104FA0000E94C8202DC00E5F1F4FFE01849190E229
:104FB000980F983060F48770FE2D01C0FF0F8A951E
:104FC000EAF78F2F0E94752A0E94A92A19C00E9411
:104FD0008B2116C00E5F1F4FFE01C491CC2381F0C0
:104FE0008FE99FE00197F1F700C00000C150F6CFB4
:104FF0000E5F1F4FFE01F49003C00E94C8208E0177
:105000008F2D882309F49FCFEFE9FFE03197F1F767
:1050100000C000008150F5CFDF91CF911F910F911B
:10502000FF90EF900895089508950C9414280C941F
:1050300015280E9417286093CC027093CD028093AC
:10504000CE029093CF020C942A240C9419280F932B
:105050001F930091CC021091CD022091CE0230918D
:10506000CF02602B712B822B932B1F910F910C94ED
:1050700019280F931F930091CC021091CD0220911B
:10508000CE023091CF0260237123822393231F919C
:105090000F910C9419280F931F930091CC0210913B
:1050A000CD022091CE023091CF0260277127822756
:1050B00093271F910F910C9419280C9414280E9487
:1050C0005D286093C8027093C9028093CA029093CE
:1050D000CB020C942A2460E070E0CB010C945F2892
:1050E0000F931F9341E050E060E070E08A019B0164
:1050F00004C0000F111F221F331F8A95D2F7C90168
:10510000B8011F910F910C945F280F931F9341E0FA
:1051100050E060E070E004C0440F551F661F771F29
:105120008A95D2F78091C8029091C902A091CA02D3
:10513000B091CB028A019B01082B192B2A2B3B2B08
:10514000C901B8011F910F910C945F280F931F9311
:1051500041E050E060E070E004C0440F551F661F5E
:10516000771F8A95D2F740955095609570958091FC
:10517000C8029091C902A091CA02B091CB028A01E3
:105180009B01082319232A233B23C901B8011F913E
:105190000F910C945F280F931F9341E050E060E063
:1051A00070E004C0440F551F661F771F8A95D2F721
:1051B0008091C8029091C902A091CA02B091CB021D
:1051C0008A019B01082719272A273B27C901B80113
:1051D0001F910F910C945F280F931F930091C802A9
:1051E0001091C9022091CA023091CB02602B712B21
:1051F000822B932B1F910F910C945F280F931F9379
:105200000091C8021091C9022091CA023091CB02CC
:1052100060237123822393231F910F910C945F28A5
:105220000F931F930091C8021091C9022091CA02E6
:105230003091CB0260277127822793271F910F910E
:105240000C945F28089527E0929F800D1124E82F89
:10525000E695E695E695877051E001C0550F8A9571
:10526000EAF785E0E89FF0011124E556FD4F20E0C4
:1052700030E070E04081CB01022E02C09695879508
:105280000A94E2F78170819584278523842781938E
:105290002F5F3F4F2530310569F7089527E0929F32
:1052A000800D1124682F669566956695982F9770E6
:1052B00085E0689FB001112440E050E080E0FB01F0
:1052C000E40FF51FE556FD4F208130E0092E02C0A6
:1052D000369527950A94E2F721703327042E01C0F2
:1052E000220F0A94EAF7822B4F5F5F4F453051053A
:1052F00031F70895BF92CF92DF92EF92FF920F9312
:105300001F93CF93DF938C01C090C802D090C90245
:10531000E090CA02F090CB028091CC029091CD0235
:10532000A091CE02B091CF02C82AD92AEA2AFB2A3C
:10533000CFE1D0E0D701C6010C2E04C0B695A795E9
:10534000979587950A94D2F780FD04C0219790F72E
:10535000B12C07C0BC2EB8018C2F0E94D01601972B
:10536000A9F38B2DDF91CF911F910F91FF90EF90BB
:10537000DF90CF90BF900895CF93DF93EC010E9410
:105380007A29BE010E94D016DF91CF9108951F9314
:10539000CF93DF93EB0190916202992321F0CB012F
:1053A0000E94BC2913C0882349F0CB010E947A29AE
:1053B000182F682FCE010E94232904C0CB010E9420
:1053C0004E29182FBE01812F0E94D016DF91CF9158
:1053D0001F9108958091D50208950E94A22C2091DA
:1053E000D3023091D4028217930750F00E94A22C6E
:1053F0002091D3023091D402821B930B9C010AC0EE
:105400000E94A22C2091D3023091D4022095309595
:10541000280F391F81E02838334108F480E00895CF
:105420008091D20285958595859508958091D202C7
:10543000877008950E94A22C2091D0023091D10251
:1054400082179307A8F00E94A22C2091D0023091DD
:10545000D102821B930B8838934110F480E013C073
:105460008091D20282FB882780F991E089270BC0C6
:105470000E94A22C2091D0023091D102209530952B
:10548000820F931FE8CF817008959091D202977098
:1054900081E009F480E008958091E10208959091FF
:1054A000E102892B8093E102089580959091E102B9
:1054B00089238093E10208951092E102089590916A
:1054C000E002892B8093E002089580959091E0029C
:1054D00089238093E00208951092E002089590914C
:1054E000DF02892B8093DF02089580959091DF027F
:1054F00089238093DF0208951092DF02089580913E
:10550000D602089508950C94822A0C94832ACF938E
:105510009091D602981769F0C82F0E94A22C909300
:10552000D4028093D302C093D6028C2FCF910C94D7
:10553000852ACF9108958091D602882349F0109250
:10554000D6021092D4021092D30280E00C94852AE5
:105550000895E091B301F091B4018091E10280835C
:10556000E091B301F091B40190818091E002892B28
:105570008083E091B301F091B40190818091DF02CA
:10558000892B80838091D6028823B9F00E94ED296F
:1055900081110E949B2AE091B301F091B4019081A6
:1055A0008091D602892B80838091B3019091B401C0
:1055B0000E94DB2B81110E949B2A8091B301909164
:1055C000B4010C948A1F0C94822A0C94E32A9091C3
:1055D000D502981721F08093D5020C94E52A0895FE
:1055E0008091D502882329F01092D50280E00C9496
:1055F000E52A08950C94822A98E0899F900111244D
:10560000262B2093D2020E9485280E94A22C9093E0
:10561000D1028093D0028091D2028595859585959F
:105620000C94FA2A1092D2021092D1021092D00257
:1056300080E00C94FA2A2091D202809582238093F4
:10564000D202982F977079F430E0482F082E000C82
:10565000550B2417350739F08595859585950E945A
:10566000A6280C94122B089580E090E00E94063446
:1056700021E08C3E9E4F09F020E0822F089582E0C9
:1056800090E00C94F83383E090E00C94F833CF93DF
:1056900084E090E00E94F833C82F81E290E00E94FD
:1056A000F8332C2F30E0A901582BCA01CF9108956F
:1056B000CF93C92F682F84E090E00E940C346C2FA8
:1056C00081E290E0CF910C940C34AB01BC018FE0EF
:1056D00090E00C941E34AB01BC0183E190E00C948B
:1056E0001E3460E070E0CB010C946B2B60E070E046
:1056F000CB010E94652B0C94712B6CEE7EEF80E049
:1057000090E00E942A3460E082E090E00E940C3435
:1057100060E083E090E00E940C341092CC02109282
:10572000CD021092CE021092CF0260E084E090E0B1
:105730000E940C3460E081E290E00E940C3460E052
:1057400085E090E00E940C3460E086E090E00E94EA
:105750000C346FEF87E090E00E940C3440E050E0A2
:10576000BA0188E090E00E941E3460E08DE090E095
:105770000E940C3440E050E0BA0188E190E00E94C1
:105780001E3460E087E190E00E940C3440E050E07D
:10579000BA018CE190E00E941E3460E080E290E06B
:1057A0000E940C340C94762B0C947D2B682F8EE089
:1057B00090E00C940C34FC01329697E080E091501C
:1057C00029F021912223D9F38F5FF9CF08959C010D
:1057D000FC0132969FEF80E04191461789F09F3F90
:1057E00019F4411101C0982F8F5F8630A9F79F3FB0
:1057F00039F0F901E90FF11D97FDFA9562830895DB
:1058000008959C012A5F3F4FFC014281461301C06D
:105810001282019682179307B9F708950C94E72B2B
:105820000C94012C029626E0FC0111922A95E9F7CE
:10583000089508950C94192C0C94192CCF930E9460
:105840001C2C0E949F0C0E941A2CC0E08C2F0E94DE
:10585000FF0C811104C0CF5FCA30C1F701C081E0E5
:10586000CF9108950C94192C0C94322C0E94342C56
:1058700080913707843049F11092E30220E488E1F7
:1058800090E00FB6F894A895809360000FBE209327
:10589000600080E00E94E1130E94342C83B7817F76
:1058A000846083BF83B7816083BF7894889583B712
:1058B0008E7F83BF0FB6F894A895809160008861B1
:1058C00080936000109260000FBE08950C94192C14
:1058D0000E9438240E947E1F0E94E1130C94662CC3
:1058E0001F920F920FB60F9211248F939F93AF9335
:1058F000BF938091E302811113C080912D07909195
:105900002E07A0912F07B09130074196A11DB11D20
:1059100080932D0790932E07A0932F07B093300705
:10592000BF91AF919F918F910F900FBE0F901F90DD
:10593000189582E084BD93E095BD9AEF97BD809362
:105940006E0008952FB7F89480912D0790912E073F
:10595000A0912F07B09130072FBF0895CF92DF920B
:10596000EF92FF920F931F932FB7F89440912D075A
:1059700050912E0760912F07709130072FBF6A0159
:105980007B01EE24FF248C0120E030E0C016D1061C
:10599000E206F30610F4415051099A01281B390B15
:1059A000C9011F910F91FF90EF90DF90CF90089564
:1059B00078941F920F920FB60F9211248F939F939A
:1059C000AF93BF9380912D0790912E07A0912F0741
:1059D000B09130070196A11DB11D80932D079093C2
:1059E0002E07A0932F07B0933007BF91AF919F91DF
:1059F0008F910F900FBE0F901F90189587E797E734
:105A000090930108809300089AE088E10FB6F8941B
:105A1000A895809360000FBE90936000FFCF0E9416
:105A2000342B811102C00E94D42B0E943F2B809303
:105A3000E2020E94472B90933207809331070E9425
:105A4000432B682F70E080E090E00C942528809133
:105A5000EC02089508950895CF93DF93EC010E941E
:105A6000D32E823011F0843039F581E08093E90043
:105A70008FEF9091E800815095FD06C095ED9A95C5
:105A8000F1F700008111F5CF8091E80085FF14C087
:105A900040E050E068E070E0CE010E94F02E80917E
:105AA000E8008E778093E80088E0FE01A4EEB2E083
:105AB00001900D928A95E1F7DF91CF9108950895B5
:105AC00080913607811109C00E9481300E94DE302A
:105AD0008091E20084608093E2000895109236077E
